:100000000C945C000C94DA010C94B3010C9479000C
:100010000C9479000C9479000C9479000C9479007C
:100020000C9479000C9479000C9479000C9479006C
:100030000C9479000C9479000C9479000C9479005C
:100040000C9469010C9401020C9479000C947900D1
:100050000C9479000C9479000C9479000C9479003C
:100060000C9479000C947900000000002400270013
:100070002A0000000000250028002B0004040404CE
:100080000404040402020202020203030303030342
:10009000010204081020408001020408102001021F
:1000A00004081020000000080002010000030407FB
:1000B000000000000000000011241FBECFEFD8E0B8
:1000C000DEBFCDBF11E0A0E0B1E0E2E6F6E002C0A5
:1000D00005900D92A630B107D9F723E0A6E0B1E074
:1000E00001C01D92A931B207E1F70E9442020C94AF
:1000F0002F030C940000E7EAF0E02491E3E9F0E03C
:100100009491EFE7F0E0E491EE2309F43BC0222361
:1001100039F1233091F038F42130A9F0223001F583
:1001200024B52F7D12C0273091F02830A1F0243063
:10013000B9F4209180002F7D03C0209180002F779B
:10014000209380000DC024B52F7724BD09C02091D5
:10015000B0002F7703C02091B0002F7D2093B00016
:10016000F0E0EE0FFF1FEE58FF4FA591B4912FB7AF
:10017000F894EC91811103C090959E2301C09E2BB1
:100180009C932FBF089580911401909115010196C1
:1001900090931501809314010895CF93DF9390E01D
:1001A000FC01E057FF4F2491FC01E458FF4F84917C
:1001B000882361F190E0880F991FFC01E859FF4FF7
:1001C000C591D491FC01EE58FF4FA591B4916111F6
:1001D00009C09FB7F8948881209582238883EC9189
:1001E0002E230BC0623061F49FB7F8943881822FC0
:1001F000809583238883EC912E2B2C939FBF06C080
:100200008FB7F894E8812E2B28838FBFDF91CF9191
:1002100008953FB7F89480910D0190910E01A0913F
:100220000F01B091100126B5A89B05C02F3F19F012
:100230000196A11DB11D3FBFBA2FA92F982F882766
:10024000820F911DA11DB11DBC01CD0142E0660FC1
:10025000771F881F991F4A95D1F708958F929F9213
:10026000AF92BF92CF92DF92EF92FF926B017C012F
:100270000E9409014B015C01C114D104E104F104A5
:10028000F1F00E940901DC01CB0188199909AA0942
:10029000BB09883E9340A105B10570F321E0C21A65
:1002A000D108E108F10888EE880E83E0981EA11CB1
:1002B000B11CC114D104E104F10419F7DDCFFF90A2
:1002C000EF90DF90CF90BF90AF909F908F90089568
:1002D00008951F920F920FB60F9211242F933F9300
:1002E0008F939F93AF93BF938091090190910A01DF
:1002F000A0910B01B0910C013091080123E0230F74
:100300002D3720F40196A11DB11D05C026E8230F4D
:100310000296A11DB11D20930801809309019093BD
:100320000A01A0930B01B0930C0180910D019091F3
:100330000E01A0910F01B09110010196A11DB11DF8
:1003400080930D0190930E01A0930F01B0931001C3
:10035000BF91AF919F918F913F912F910F900FBEC1
:100360000F901F9018951F920F920FB60F921124A5
:100370002F933F934F935F936F937F938F939F93AD
:10038000AF93BF93EF93FF93E0910201F0910301CC
:100390000995FF91EF91BF91AF919F918F917F91BF
:1003A0006F915F914F913F912F910F900FBE0F90E2
:1003B0001F9018951F920F920FB60F9211242F9332
:1003C0003F934F935F936F937F938F939F93AF93DD
:1003D000BF93EF93FF93E0910001F0910101099524
:1003E000FF91EF91BF91AF919F918F917F916F910D
:1003F0005F914F913F912F910F900FBE0F901F90E3
:1004000018951F920F920FB60F9211248F939F93FE
:1004100080910701882349F010920701809106011D
:10042000813819F48EB5809304018EB5809306014E
:100430008091060187FF04C081E0809307011BC003
:1004400080910601813069F050F0823069F083308C
:1004500089F480911201909113019EBD0CC081E03E
:1004600007C08091040104C0809112019091130192
:100470008EBD01C01EBC9F918F910F900FBE0F903B
:100480001F901895789484B5826084BD84B581608E
:1004900084BD85B5826085BD85B5816085BD80914F
:1004A0006E00816080936E001092810080918100C7
:1004B00082608093810080918100816080938100BF
:1004C000809180008160809380008091B100846081
:1004D0008093B1008091B00081608093B0008091E2
:1004E0007A00846080937A0080917A0082608093A1
:1004F0007A0080917A00816080937A0080917A00FE
:10050000806880937A001092C10060E082E00E94CF
:10051000CD0061E083E00E94CD0083EC90E09093F9
:10052000010180930001809169008C7F826080933B
:100530006900E89A80E00E947B0081E00E947B00D5
:1005400061E08CE00E94CD0080EC8CBDC0E0D0E08A
:10055000F89480911603482F50E0FA01EE0FFF1F28
:10056000EA5EFE4FA081B181609114017091150186
:100570002091170330911803260F371F7183608372
:100580002A1B3B0B3093180320931703109215017D
:1005900010921401909104019F3F51F06091040169
:1005A000CA01019670E06F5F7F4F0E94070301C090
:1005B0008F5F8093160378948091170390911803AE
:1005C000909313018093120180911101882399F077
:1005D0001092110181E00E947B0064E670E080E0EF
:1005E00090E00E942E0180E00E947B0064E873E0AE
:1005F00080E090E004C068EE73E080E090E00E944C
:100600002E01209709F4A4CF0E940000A1CF97FBF0
:10061000072E16F4009407D077FD09D00E941B0323
:1006200007FC05D03EF4909581959F4F08957095F5
:1006300061957F4F0895AA1BBB1B51E107C0AA1FFC
:10064000BB1FA617B70710F0A61BB70B881F991F73
:100650005A95A9F780959095BC01CD010895F8941D
:02066000FFCFCA
:06066200680168010700B9
:00000001FF
